:1000000017C026C025C024C003C122C021C020C003
:100010001FC01EC01DC01CC01BC01AC019C00038A4
:10002000003700360101010101010102040810201E
:1000300011241FBECFE5D2E0DEBFCDBF20E0A0E699
:10004000B0E001C01D92AD36B207E1F728D1BFC1C3
:10005000D7CF282F30E0F901E65DFF4F9491F901E9
:10006000EC5DFF4FE491EE23B1F081110FC08AB532
:100070008F738ABDF0E0EE5DFF4FA491B0E0EC918C
:10008000E92381E090E049F480E00895813091F720
:100090008AB58F7CEECF80E090E0089590E0FC017F
:1000A000E65DFF4F24918C5D9F4FFC018491882376
:1000B000A1F090E0FC01E05EFF4FA491B0E0825E11
:1000C0009F4FFC0184918FB7611108C0F8949C91F7
:1000D000E22FE095E923EC938FBF0895F894EC911B
:1000E000E22BF9CF0000000000000000000000003B
:1000F0000000000000000000000000000000000000
:1001000000000000000000000000000000000000EF
:1001100000000000000000000000029782309105FE
:1001200008F708953FB7F8948091690090916A00AC
:10013000A0916B00B0916C002FB508B602FE05C00F
:100140002F3F19F00196A11DB11D3FBFBA2FA92F56
:10015000982F8827BC01CD01620F711D811D911D53
:1001600042E0660F771F881F991F4A95D1F70895BF
:10017000CF92DF92EF92FF92CF93DF93D3DFEB0129
:100180008EE0C82ED12CE12CF12CCCDF6C1B7D0B2A
:10019000683E7340D0F381E0C81AD108E108F10845
:1001A000C851DC4FC114D104E104F10471F7DF91AF
:1001B000CF91FF90EF90DF90CF900895C19A811179
:1001C0000FC080E091E08EDFC19886EB97E08ADF78
:1001D000C19A80E091E086DFC19886EB97E010C07D
:1001E000813079F482E098E07DDFC19884E690E088
:1001F00079DFC19A82E098E075DFC19884E690E0EB
:1002000071CF82E098E06EDFC19884E690E0DFCFA6
:1002100078941F920F920FB60F9211242F933F9351
:100220008F939F93AF93BF938091650090916600E9
:10023000A0916700B0916800309164002CE7230F13
:100240002D3728F02FEF230F0196A11DB11D20930C
:1002500064008093650090936600A0936700B0935C
:1002600068008091690090916A00A0916B00B09144
:100270006C000196A11DB11D8093690090936A00E6
:10028000A0936B00B0936C00BF91AF919F918F9141
:100290003F912F910F900FBE0F901F90189578945B
:1002A00080B7806880BF80B7806480BF8CB5806471
:1002B0008CBD8FEF8DBD80B7807F876080BF89B791
:1002C000846089BF83B7887F83BF8AB58C7F816054
:1002D0008ABD83B7877F83BF83B7887F836083BFEF
:1002E00086B1876086B9379A61E081E0D7DE60E049
:1002F00080E0D4DE60E082E0D1DE80E0AADE892BFF
:10030000C1F082E0A6DE892BA1F481E057DF81E015
:1003100055DF80E053DF81E051DF82E04FDF81E095
:100320004DDF80E04BDF82E049DF80E047DF20DF08
:10033000E4CF82E08EDE892B89F52FB7F894809187
:10034000650090916600A0916700B09168002FBF92
:100350004091600050916100609162007091630073
:100360008C019D01041B150B260B370BB901A8014D
:10037000443F51406105710508F4BFCF8093600090
:1003800090936100A0936200B093630081E061DE0E
:100390008130D1F088B3826088BBAFCF80E059DE76
:1003A000892B59F681E00ADF81E008DF80E006DF73
:1003B00081E004DF82E002DF81E000DF80E0FEDE3A
:1003C00082E0FCDE82E0B2CF88B38D7FE5CFF89487
:0203D000FFCF5D
:00000001FF
